:100000000C943A000C9400010C9400010C94000133
:100010000C9400010C9400010C9400010C9400015C
:100020000C9400010C9400010C9400010C9400014C
:100030000C9400010C9400010C9400010C9400013C
:100040000C9400010C9400010C9400010C9400012C
:100050000C9400010C9400010C9400010C9400011C
:100060000C9400010C9400010100011000020E012B
:100070001001138011241FBECFEFD8E0DEBFCDBF2B
:10008000E8E6F0E040E017C0B591A59135912591E3
:10009000059107FD0CC095918591EF01F92FE82F8F
:1000A00005900D92A217B307D9F7FE0104C01D9267
:1000B000A217B307E1F7E437F40731F70E94D40041
:0800C0000C94EA00F894FFCF54
:1000C80090911201992319F09130B9F030C0299814
:1000D8009DEC899F912D1124969596959695990F4B
:1000E800292F220F220F920F891BE82FF0E0E050F2
:1000F800FF4F80818BB9289A1AC028989DEC899F58
:10010800E12D1124E695E695E695E99F812D1124C8
:10011800869586958695880F982F990F990F890F40
:10012800E81BF0E0E050FF4F80818BB9299A80915D
:0C01380012018F5F817080931201089506
:100144001D990EC08091110181110AC083B185FBF4
:10015400992790F981E089278093110181E008951E
:1001640083B185FB992790F981E089278093110158
:0401740080E008958A
:100178001C9B0DC080911001882349F083B18295A2
:10018800817091E089278093100181E0089583B1FF
:100198008295817091E089278093100180E008950D
:1001A8000E94F5000E94FB00C0E00E94A200882384
:1001B80019F0C03208F4CF5F0E94BC00882311F008
:0C01C800C111C1508C2F0E946400EFCFC9
:1001D400EC010E9405010E940401CE010E94060167
:0601E400CE010E940201A1
:0C01EA008FEF8AB91BB8209A219A089563
:0A01F600259824982D9A2C9A08955C
:040200000C9400005A
:040204000E946200F2
:02020800089557
:02020A00089555
:02020C00089553
:10020E003F065B4F666D7D077F6F777C395E797138
:00000001FF
