:100000000C943A000C9405010C9405010C94050124
:100010000C9405010C9405010C9405010C94050148
:100020000C9405010C9405010C9405010C94050138
:100030000C9405010C9405010C9405010C94050128
:100040000C9405010C9405010C9405010C94050118
:100050000C9405010C9405010C9405010C94050108
:100060000C9405010C940501010001100002180117
:100070001001138011241FBECFEFD8E0DEBFCDBF2B
:10008000E8E6F0E040E017C0B591A59135912591E3
:10009000059107FD0CC095918591EF01F92FE82F8F
:1000A00005900D92A217B307D9F7FE0104C01D9267
:1000B000A217B307E1F7E437F40731F70E94A20073
:0800C0000C94EF00F894FFCF4F
:1000C80090911201992319F09130B9F030C0299814
:1000D8009DEC899F912D1124969596959695990F4B
:1000E800292F220F220F920F891BE82FF0E0E050F2
:1000F800FF4F80818BB9289A1AC028989DEC899F58
:10010800E12D1124E695E695E695E99F812D1124C8
:10011800869586958695880F982F990F990F890F40
:10012800E81BF0E0E050FF4F80818BB9299A80915D
:0C01380012018F5F817080931201089506
:100144000E94FA000E940001C0E00E94BD008823C2
:1001540029F0C33610F4CF5F01C0C0E00E94D7007D
:10016400882329F0CC2311F0C15001C0C3E68C2FA1
:060174000E946400EACFC6
:10017A001D990EC08091110181110AC083B185FBBE
:10018A00992790F981E089278093110181E00895E8
:10019A0083B185FB992790F981E089278093110122
:0401AA0080E0089554
:1001AE001C9B0DC080911001882349F083B182956C
:1001BE00817091E089278093100181E0089583B1C9
:1001CE008295817091E089278093100180E00895D7
:1001DE00EC010E940A010E940901CE010E940B014E
:0601EE00CE010E94070192
:0C01F4008FEF8AB91BB8209A219A089559
:0A020000259824982D9A2C9A089551
:04020A000C94000050
:04020E000E946200E8
:0202120008954D
:0202140008954B
:02021600089549
:100218003F065B4F666D7D077F6F777C395E79712E
:00000001FF
